:100000000C9472000C9493000C9493000C94930045
:100010000C9493000C9493000C9493000C94930014
:100020000C9493000C9493000C9493000C94930004
:100030000C9493000C9493000C9493000C949300F4
:100040000C9493000C9495000C9493000C949300E2
:100050000C9493000C9493000C9493000C949300D4
:100060000C9493000C9493000C9493000C949300C4
:100070000C9493000C9493000C9493000C949300B4
:100080000C9493000C9493000C9493000C949300A4
:100090000C9493000C9493000C9493000C94930094
:1000A0000C9493000C9493000C9493000C94930084
:1000B0000C9493000C9493000C9493000C94930074
:1000C0000C9493000C9493000C9493000C94930064
:1000D0000C9493000C9493000C9493000C94930054
:1000E0000C94930011241FBECFEFD1E2DEBFCDBF31
:1000F00000E00CBF12E0A0E0B2E0EEECF1E000E0C6
:100100000BBF02C007900D92AE30B107D9F722E0C5
:10011000AEE0B2E001C01D92AF30B207E1F70E943D
:10012000A4000C94E5000C9400001F920F920FB6EF
:100130000F9211248F9381E080930E028F910F9084
:100140000FBE0F901F9018958DB186608DB980E419
:1001500093E09093C5008093C40088E08093C10031
:1001600086E68093C2001092800010928500109263
:1001700084008BE29AE090938900809388008DE060
:100180008093810082E080936F00789480910E02CA
:1001900081110BC083B7816083BF889583B78E7F41
:1001A00083BF80910E028823A9F3F894E1E0F2E086
:1001B00098E48091C00085FFFCCF9093C600919198
:0E01C0009111F7CF10920E02E0CFF894FFCF0E
:0E01CE0048656C6C6F20776F726C64210A00BC
:00000001FF
