:100000000C9472000C9486000C9486000C9486006C
:100010000C9486000C9486000C9486000C94860048
:100020000C9486000C9486000C9486000C94860038
:100030000C9486000C9486000C9486000C94860028
:100040000C9486000C9486000C9486000C94860018
:100050000C9486000C9486000C9486000C94860008
:100060000C9486000C9488000C9486000C948600F6
:100070000C9486000C9486000C9486000C948600E8
:100080000C9486000C9486000C9486000C948600D8
:100090000C9486000C9486000C9486000C948600C8
:1000A0000C9486000C9486000C9486000C948600B8
:1000B0000C9486000C9486000C9486000C948600A8
:1000C0000C9486000C9486000C9486000C94860098
:1000D0000C9486000C9486000C9486000C94860088
:1000E0000C94860011241FBECFEFD1E2DEBFCDBF3E
:1000F00000E00CBF23E0A0E0B2E001C01D92A434F8
:10010000B207E1F70E94DD000C94CD010C940000D1
:100110001F920F920FB60F9211240BB60F928F936E
:100120009F93EF93FF938091C600E091010291E0CD
:100130009E0F90930102F0E0EE5FFD4F808380916F
:1001400001028F7380930102FF91EF919F918F9134
:100150000F900BBE0F900FBE0F901F9018959091AF
:100160000102809100029817C1F0E091000281E045
:100170008E0F80930002F0E0EE5FFD4F8081909142
:1001800000029F7390930002089583B7816083BF3C
:100190007894889583B78E7F83BFF89490910102FD
:1001A00080910002981789F37894DFCF9091C00076
:1001B00095FFFCCF8093C6000895699A80E493E090
:1001C0009093C5008093C40088E98093C10086E6BF
:1001D0008093C2001EE3D0E2ADECB9E2CAE08091A8
:1001E000C00085FFFCCF1093C6008091C00085FF42
:1001F000FCCFD093C600109243021092420290911D
:10020000010280910002981709F44AC0E0910002AF
:1002100081E08E0F80930002F0E0EE5FFD4F2081C1
:10022000809100028F73809300028091C00085FF4F
:10023000FCCF2093C6002A3009F4A6C08091420268
:1002400090914302AC014F5F5F4F50934302409344
:100250004202FC01EC5BFD4F20834F3F510579F2D8
:1002600070F280914402803299F5E5E4F2E020E0FA
:1002700030E003C08191803269F52F5F3F4F241732
:100280003507C1F770E38091C00085FFFCCF709304
:10029000C6008091C00085FFFCCFC093C6009FCFF1
:1002A000F894809101029091000298130FC083B7D7
:1002B000816083BF7894889583B78E7F83BFF894DD
:1002C0009091010280910002981789F378949ECF53
:1002D00020E030E070E07F5F24173507A8F4F901D3
:1002E000EC5BFD4F8081803209F43EC0C90101966C
:1002F000FC01EC5BFD4F04C061916032A9F10196F5
:100300009C0184179507C0F37A9F812D112486954F
:10031000869586958A9F912D11249695969596950A
:10032000382F2AE0929F30191124932F7B9F212D83
:10033000112422952F703AE0839F70191124705D6B
:10034000222339F0205D8091C00085FFFCCF2093EF
:10035000C600992309F497CF905D8091C00085FF76
:10036000FCCF9093C6008FCFC9010196FC01EC5BD6
:10037000FD4F05C06191603209F0ADCF01969C013F
:1003800084179507B8F3C0CF4091420250914302C1
:0E0390004115510509F065CF75CFF894FFCFE8
:00000001FF
