:100000000C9472000C9493000C9493000C94930045
:100010000C9493000C9493000C9493000C94930014
:100020000C9493000C9493000C9493000C94930004
:100030000C9493000C9493000C9493000C949300F4
:100040000C9493000C948D010C9493000C949300E9
:100050000C9493000C9493000C9493000C949300D4
:100060000C9493000C9469030C9493000C949300EB
:100070000C9493000C9493000C9493000C949300B4
:100080000C9493000C9493000C9493000C949300A4
:100090000C9493000C9493000C9493000C94930094
:1000A0000C9493000C9493000C9493000C94930084
:1000B0000C9493000C9493000C9493000C94930074
:1000C0000C9493000C9493000C9493000C94930064
:1000D0000C9493000C9493000C9493000C94930054
:1000E0000C94930011241FBECFEFD1E2DEBFCDBF31
:1000F00000E00CBF12E0A0E0B2E0ECE7FBE000E0C3
:100100000BBF02C007900D92A438B107D9F725E0C4
:10011000A4E8B2E001C01D92A23DB207E1F70E943F
:100120008E040C94BC050C9400001F93CF93DF93B6
:1001300062E572E080E092E00E940F04C0E565E2B3
:1001400080E092E00E94B903C150C9F7D6E110E304
:10015000C2E32DC0612F80E092E00E94B9036C2FB2
:1001600080E092E00E94B90344E050E06DE572E067
:1001700080E092E00E94F7036AE572E080E092E09E
:100180000E940F04612F80E092E00E94B9036C2F5F
:1001900080E092E00E94B90362E672E080E092E0C3
:1001A0000E940F04CF5FCA33F1F0D15001F16AE52C
:1001B00072E080E092E00E940F04103359F66C2F39
:1001C00080E092E00E94B90344E050E06DE572E007
:1001D00080E092E00E94F7036AE572E080E092E03E
:1001E0000E940F04D4CF1F5FC0E3D15001F769E62E
:1001F00072E080E092E00E940F04C0E565E280E0DA
:1002000092E00E94B903C150C9F760E772E080E054
:1002100092E0DF91CF911F910C940F040F931F93E5
:10022000CF93DF93C82F062F6BE180E092E00E940E
:10023000B9036BE580E092E00E94B903CC0F13E0B4
:100240001C0FD2E0D00FDA3068F10DECD09F012DF9
:10025000112406950695069560E3600F80E092E014
:100260000E94B9038AE0089FD019112460E36D0F42
:1002700080E092E00E94B9036BE380E092E00E948C
:10028000B9031A30E0F463E36C0F80E092E00E945F
:10029000B90368E480E092E0DF91CF911F910F9164
:1002A0000C94B90362E3600F80E092E00E94B9030E
:1002B0006BE380E092E00E94B9031A3020F3CDECAA
:1002C0001C9FC12D1124C695C695C69560E36C0F81
:1002D00080E092E00E94B903612F8AE0C89F601914
:1002E0001124605D80E092E00E94B903D2CF1092A9
:1002F0008000109285001092840081E49FE090932A
:100300008900809388008DE08093810082E0809353
:100310006F00089510926F0008951F920F920FB60C
:100320000F9211240BB60F922F933F934F935F932D
:100330006F937F938F939F93AF93BF93EF93FF93AD
:100340008091840290E00E945A021092840280916F
:100350008A02811110926F00FF91EF91BF91AF91CE
:100360009F918F917F916F915F914F913F912F91CD
:100370000F900BBE0F900FBE0F901F901895FF921D
:100380000F931F93CF93DF9306E210E0C6E1D0E016
:1003900086E2F82E0E946C05B8010E94D704809373
:1003A000D1050E946C05BE010E94D704809387028C
:1003B0002091D105F89EF001F99EF00D1124E5572A
:1003C000FD4FE20FF11D27FDFA9580818111E2CFEB
:1003D000DF91CF911F910F91FF900895FF920F939E
:1003E0001F93CF93DF9380E090E00E947005EBE8CD
:1003F000F2E086E2DF01982F1D929A95E9F7B69612
:10040000A5E0EF3CFA07B1F783E0809315048093F1
:10041000160480931704809318048093190482E1D2
:100420008093CF058AE0809386029EE090938502B8
:100430008093D00506E210E0C6E1D0E086E2F82E17
:100440000E946C05B8010E94D7048093D1050E94D8
:100450006C05BE010E94D704809387022091D105CC
:10046000F89EF001F99EF00D1124E557FD4FE20FC3
:10047000F11D27FDFA9530813111E2CF682F822FCF
:100480000E940E016CE380E092E00E94B9036EE3EB
:1004900080E092E00E94B90383E090E090938902AB
:1004A0008093880210928A02DF91CF911F910F9161
:1004B000FF900895FF920F931F93CF93DF932091A6
:1004C0008A022111B6C0009779F0409188025091BC
:1004D000890225E030E0241B350B8217930721F0B9
:1004E0009093890280938802609186028091CF0563
:1004F0000E940E0163E280E092E00E94B90363E291
:1005000080E092E00E94B903609186028091CF055D
:10051000209188023091890296E26902F00111244B
:10052000E557FD4FE80FF11D87FDFA952083223036
:10053000310509F488C008F48AC02330310509F474
:100540007EC02430310519F46150609386028632F2
:100550000CF06CC0663108F069C087FD67C00E946E
:100560000E0168E280E092E00E94B90369E280E057
:1005700092E00E94B903909186028091CF0526E215
:100580009202F0011124E557FD4FE80FF11D87FDA0
:10059000FA95208121114AC0209188022083209160
:1005A000D105821709F45BC06091D0058091850266
:1005B0000E940E0160E280E092E00E94B90360E2D6
:1005C00080E092E00E94B9039091D00520918502CD
:1005D00086E29802F0011124E557FD4FE20FF11D6C
:1005E00027FDFA9580811082823009F46EC008F4EC
:1005F00061C0833009F465C0843019F49150909340
:10060000D005609187028091D1050E940E016CE3B4
:1006100080E092E00E94B9036EE380E092E0DF9117
:10062000CF911F910F91FF900C94B90381E08093BB
:100630008A02DF91CF911F910F91FF9008958F5FF4
:100640008093CF0584CF81508093CF0580CF213018
:10065000310509F07CCF6F5F6093860278CF80917F
:1006600087029813A1CF06E210E0C6E1D0E086E24F
:10067000F82E0E946C05B8010E94D7048093D10522
:100680000E946C05BE010E94D704809387022091CE
:10069000D105F89EF001F99EF00D1124E557FD4FAC
:1006A000E20FF11D27FDFA9530813111E2CF682F5D
:1006B000822FABCF813009F0A4CF9F5F9093D005FC
:1006C000A0CF2F5F209385029CCF215020938502DD
:1006D00098CF1F920F920FB60F9211240BB60F9264
:1006E0002F933F934F935F936F937F938F939F933A
:1006F000AF93BF93EF93FF9380E092E00E94C50316
:10070000FF91EF91BF91AF919F918F917F916F91E9
:100710005F914F913F912F910F900BBE0F900FBEA5
:100720000F901F901895CF93DF93EC019A01AB01C6
:100730001C861D8660E472E48FE090E00E94EB046A
:1007400021503109EA85FB853083E885F9852083CE
:10075000EE81FF8186E68083EC81FD81808188695E
:100760008083EC81FD8180818F7D8083DF91CF91BB
:100770000895DC011296ED91FC911397908195FFFD
:10078000FDCFED91FC9160830895FC01A081B181C2
:100790009C91858521E0280F2587DF01A80FB11DD9
:1007A0001E969C9385858F7385870895FC0195859A
:1007B00084859817A9F0848591E0980F9487DF01CC
:1007C000A80FB11D1E968C9194859F7394870895F0
:1007D00083B7816083BF7894889583B78E7F83BF0A
:1007E000F89495858485981799F37894E4CFCF93FE
:1007F000DF93EC014115510579F0DB01460F571FDE
:100800008D91EA81FB81908195FFFDCFE881F9818F
:100810008083A417B507A1F7DF91CF910895CF93F7
:10082000DF93EC01FB012081222369F0DB011196AB
:10083000EA81FB81908195FFFDCFE881F9812083DA
:100840002D912111F5CFDF91CF910895CF93DF93B3
:10085000FC014115510539F1DB01460F571F0FC04F
:10086000848591E0980F9487EF01C80FD11D9E8574
:1008700084858F7384879D934A175B07A1F09585C4
:1008800084859813EDCF08C083B7816083BF7894C7
:10089000889583B78E7F83BFF89495858485981754
:1008A00099F37894DDCFDF91CF910895CF93DF93C3
:1008B000FC014230510578F1DB0141505109460FEE
:1008C000571F12C0848591E0980F94879F01280FCD
:1008D000311DE9019E8584858F7384879D939A30AD
:1008E000C1F0A417B507B9F0BD01958584859813AB
:1008F000E9CF08C083B7816083BF7894889583B7B8
:100900008E7F83BFF89495858485981799F37894A2
:10091000D9CFFB011082DF91CF9108958DB1866010
:100920008DB940E855E260E070E080E092E00E941E
:100930009303789480E092E00E94D6030E94950091
:100940000E94EE01109280001092850010928400A7
:1009500081E49FE090938900809388008DE08093EC
:10096000810082E080936F0001E014E0D2E0C3E0F8
:1009700080E092E00E94D603843671F0853678F0EC
:10098000833791F08737A1F71093840280E092E0DB
:100990000E94D603843691F7C0938402E9CF813652
:1009A00039F7D0938402E4CF00938402E1CF97FB20
:1009B000072E16F4009407D077FD09D00E940D058C
:1009C00007FC05D03EF4909581959F4F0895709552
:1009D00061957F4F0895A1E21A2EAA1BBB1BFD0152
:1009E0000DC0AA1FBB1FEE1FFF1FA217B307E4070E
:1009F000F50720F0A21BB30BE40BF50B661F771F66
:100A0000881F991F1A9469F7609570958095909545
:100A10009B01AC01BD01CF010895AA1BBB1B51E195
:100A200007C0AA1FBB1FA617B70710F0A61BB70B5E
:100A3000881F991F5A95A9F780959095BC01CD0103
:100A400008958F929F92AF92BF92CF92DF92EF92D2
:100A5000FF92CF93DF93EC01688179818A819B813A
:100A6000611571058105910521F464E279ED8BE54D
:100A700097E02DE133EF41E050E00E947B05490112
:100A80005A019B01AC01A7EAB1E40E949A056B01EF
:100A90007C01ACEEB4EFA50194010E94A805DC0135
:100AA000CB018C0D9D1DAE1DBF1DB7FF03C001976F
:100AB000A109B04888839983AA83BB839F77DF917C
:100AC000CF91FF90EF90DF90CF90BF90AF909F902D
:100AD0008F9008950C9421058EE492E00C942105EA
:100AE000A0E0B0E080934E0290934F02A09350029A
:100AF000B09351020895052E97FB1EF400940E94B6
:100B0000920557FD07D00E94EB0407FC03D04EF47A
:100B10000C94920550954095309521953F4F4F4F3D
:100B20005F4F089590958095709561957F4F8F4F99
:100B30009F4F08950E94AD05A59F900DB49F900D05
:100B4000A49F800D911D11240895B7FF0C949A0560
:100B50000E949A05821B930B0895A29FB001B39F38
:100B6000C001A39F700D811D1124911DB29F700DB6
:0C0B7000811D1124911D0895F894FFCF01
:100B7C00C600C000C100C200C400C50000000000D7
:100B8C000000000000000000000000000000000059
:100B9C000000000000000000000000000000000049
:100BAC000000000000000000000000000000000039
:100BBC000000000000000000000000000000010028
:100BCC0000001B5B324A1B5B48001B5B003B48254B
:100BDC0025003B3739482525001B5B32343B480048
:100BEC001B5B31323B333148232323232323232321
:040BFC0028290000A4
:00000001FF
