:100000000C9472000C9486000C9486000C9486006C
:100010000C9486000C9486000C9486000C94860048
:100020000C9486000C9486000C9486000C94860038
:100030000C9486000C9486000C9486000C94860028
:100040000C9486000C9486000C9486000C94860018
:100050000C9486000C9486000C9486000C94860008
:100060000C9486000C9486000C9486000C948600F8
:100070000C9486000C9486000C9486000C948600E8
:100080000C9488000C9486000C9486000C948600D6
:100090000C9486000C9486000C9486000C948600C8
:1000A0000C9486000C9486000C9486000C948600B8
:1000B0000C9486000C9486000C9486000C948600A8
:1000C0000C9486000C9486000C9486000C94860098
:1000D0000C9486000C9486000C9486000C94860088
:1000E0000C94860011241FBECFEFD1E2DEBFCDBF3E
:1000F00000E00CBF22E0A0E0B2E001C01D92A13000
:10010000B207E1F70E94A0000C94C3000C94000019
:100110001F920F920FB60F9211248F939F9380918D
:100120000002805F8093000290E090938D008093A6
:100130008C009F918F910F900FBE0F901F9018957C
:1001400089E08093800010928500109284001092C4
:100150008D0010928C0091E090938100109290009D
:10016000109295001092940020E03AE030939900AC
:10017000209398008093910082E08093710080E842
:0A01800084B97894FFCFF894FFCF04
:00000001FF
