:100000000C9472000C947E000C947E000C947E0084
:100010000C947E000C947E000C947E000C947E0068
:100020000C947E000C947E000C947E000C947E0058
:100030000C947E000C947E000C947E000C947E0048
:100040000C947E000C947E000C947E000C947E0038
:100050000C947E000C947E000C947E000C947E0028
:100060000C947E000C947E000C947E000C947E0018
:100070000C947E000C947E000C947E000C947E0008
:100080000C947E000C947E000C947E000C947E00F8
:100090000C947E000C947E000C947E000C947E00E8
:1000A0000C947E000C947E000C947E000C947E00D8
:1000B0000C947E000C947E000C947E000C947E00C8
:1000C0000C947E000C947E000C947E000C947E00B8
:1000D0000C947E000C947E000C947E000C947E00A8
:1000E0000C947E0011241FBECFEFD1E2DEBFCDBF46
:1000F00000E00CBF0E9480000C94EB000C94000008
:10010000CF93DF93CDB7DEB7C858D1090FB6F894B7
:10011000DEBF0FBECDBF84E290E0FC01208184E20F
:1001200090E02068FC01208385E290E0FC012081C2
:1001300085E290E02068FC01208319821A821B82EC
:100140001C8214C085E290E0FC01208185E290E0F1
:100150002068FC01208389819A81AB81BC81019652
:10016000A11DB11D89839A83AB83BC8389819A8148
:10017000AB81BC8180319742A105B1051CF385E2BA
:1001800090E0FC01208185E290E02F77FC01208344
:100190001D821E821F82188614C085E290E0FC0139
:1001A000208185E290E02F77FC0120838D819E8164
:1001B000AF81B8850196A11DB11D8D839E83AF834C
:1001C000B8878D819E81AF81B88580319742A10526
:0A01D000B1051CF3A9CFF894FFCF8E
:00000001FF
