:100000000C9472000C948B000C948B000C948B005D
:100010000C948B000C948B000C948B000C948B0034
:100020000C948B000C948B000C948B000C948B0024
:100030000C948B000C948B000C948B000C948B0014
:100040000C948B000C948B000C948B000C948B0004
:100050000C948B000C948B000C948B000C948B00F4
:100060000C948B000C948B000C948B000C948B00E4
:100070000C948B000C948B000C948B000C948B00D4
:100080000C948B000C948B000C948B000C948B00C4
:100090000C948B000C948B000C948B000C948B00B4
:1000A0000C948B000C948B000C948B000C948B00A4
:1000B0000C948B000C948B000C948B000C948B0094
:1000C0000C948B000C948B000C948B000C948B0084
:1000D0000C948B000C948B000C948B000C948B0074
:1000E0000C948B0011241FBECFEFD1E2DEBFCDBF39
:1000F00000E00CBF12E0A0E0B2E0E4EFF1E000E0CD
:100100000BBF02C007900D92A831B107D9F70E942A
:10011000C5000C94F8000C9400000F931F93CF932C
:10012000DF93C82FD92F862F972F823091053CF16E
:10013000BC018E01880F991FAE0142505109480F32
:10014000591F18C0E417F50771F081919191208132
:10015000318128173907B4F7DF0112972D933C93AB
:1001600091838083EFCF615071094250510940174C
:10017000510729F0FE01623071053CF7F4CFDF91A1
:10018000CF911F910F910895FFCFCDB7DEB768973C
:100190000FB6F894DEBF0FBECDBF279A8CE0E0E02B
:1001A000F2E0DE01119601900D928A95E1F766E08A
:1001B00070E0CE0101960E948D008CE0ECE0F2E050
:1001C000DE011D9601900D928A95E1F7FE013196B0
:1001D000DE011D96AD01219131918D919D912817E0
:1001E000390729F4E417F507B1F72F9AFFCFFFCFAE
:0401F000F894FFCFB1
:1001F4000A000700080009000100050001000500CD
:080204000700080009000A00D0
:00000001FF
