:100000000C9472000C948B000C948B000C948B005D
:100010000C948B000C948B000C948B000C948B0034
:100020000C948B000C948B000C948B000C948B0024
:100030000C948B000C948B000C948B000C948B0014
:100040000C948B000C948B000C948B000C948B0004
:100050000C948B000C948B000C948B000C948B00F4
:100060000C948B000C948B000C948B000C948B00E4
:100070000C948B000C948B000C948B000C948B00D4
:100080000C948B000C948B000C948B000C948B00C4
:100090000C948B000C948B000C948B000C948B00B4
:1000A0000C948B000C948B000C948B000C948B00A4
:1000B0000C948B000C948B000C948B000C948B0094
:1000C0000C948B000C948B000C948B000C948B0084
:1000D0000C948B000C948B000C948B000C948B0074
:1000E0000C948B0011241FBECFEFD1E2DEBFCDBF39
:1000F00000E00CBF12E0A0E0B2E0E0E5F1E000E0DB
:100100000BBF02C007900D92AE30B107D9F70E9425
:100110008D000C94A6000C94000080E493E0909372
:10012000C5008093C40088E08093C10086E6809378
:10013000C200E1E0F2E098E48091C00085FFFCCFCE
:100140009093C60091919111F7CFF3CFF894FFCF20
:0E01500048656C6C6F20776F726C64210A003A
:00000001FF
